{
  "_format": "hh-sol-artifact-1",
  "contractName": "Amative",
  "sourceName": "contracts/Amative.sol",
  "abi": [
    {
      "inputs": [],
      "stateMutability": "nonpayable",
      "type": "constructor"
    },
    {
      "anonymous": false,
      "inputs": [
        {
          "indexed": true,
          "internalType": "address",
          "name": "owner",
          "type": "address"
        },
        {
          "indexed": true,
          "internalType": "address",
          "name": "approved",
          "type": "address"
        },
        {
          "indexed": true,
          "internalType": "uint256",
          "name": "tokenId",
          "type": "uint256"
        }
      ],
      "name": "Approval",
      "type": "event"
    },
    {
      "anonymous": false,
      "inputs": [
        {
          "indexed": true,
          "internalType": "address",
          "name": "owner",
          "type": "address"
        },
        {
          "indexed": true,
          "internalType": "address",
          "name": "operator",
          "type": "address"
        },
        {
          "indexed": false,
          "internalType": "bool",
          "name": "approved",
          "type": "bool"
        }
      ],
      "name": "ApprovalForAll",
      "type": "event"
    },
    {
      "anonymous": false,
      "inputs": [
        {
          "indexed": true,
          "internalType": "uint256",
          "name": "tokenId",
          "type": "uint256"
        },
        {
          "indexed": false,
          "internalType": "address",
          "name": "seller",
          "type": "address"
        },
        {
          "indexed": false,
          "internalType": "address",
          "name": "owner",
          "type": "address"
        },
        {
          "indexed": false,
          "internalType": "uint256",
          "name": "price",
          "type": "uint256"
        },
        {
          "indexed": false,
          "internalType": "bool",
          "name": "sold",
          "type": "bool"
        }
      ],
      "name": "MarketItemCreated",
      "type": "event"
    },
    {
      "anonymous": false,
      "inputs": [
        {
          "indexed": true,
          "internalType": "uint256",
          "name": "tokenId",
          "type": "uint256"
        },
        {
          "indexed": false,
          "internalType": "address",
          "name": "seller",
          "type": "address"
        },
        {
          "indexed": false,
          "internalType": "address",
          "name": "owner",
          "type": "address"
        },
        {
          "indexed": false,
          "internalType": "bool",
          "name": "sold",
          "type": "bool"
        }
      ],
      "name": "MarketItemSold",
      "type": "event"
    },
    {
      "anonymous": false,
      "inputs": [
        {
          "indexed": true,
          "internalType": "address",
          "name": "from",
          "type": "address"
        },
        {
          "indexed": true,
          "internalType": "address",
          "name": "to",
          "type": "address"
        },
        {
          "indexed": true,
          "internalType": "uint256",
          "name": "tokenId",
          "type": "uint256"
        }
      ],
      "name": "Transfer",
      "type": "event"
    },
    {
      "inputs": [
        {
          "internalType": "string",
          "name": "baseURI_",
          "type": "string"
        }
      ],
      "name": "_setBaseURI",
      "outputs": [],
      "stateMutability": "nonpayable",
      "type": "function"
    },
    {
      "inputs": [
        {
          "internalType": "address",
          "name": "to",
          "type": "address"
        },
        {
          "internalType": "uint256",
          "name": "tokenId",
          "type": "uint256"
        }
      ],
      "name": "approve",
      "outputs": [],
      "stateMutability": "nonpayable",
      "type": "function"
    },
    {
      "inputs": [
        {
          "internalType": "address",
          "name": "owner",
          "type": "address"
        }
      ],
      "name": "balanceOf",
      "outputs": [
        {
          "internalType": "uint256",
          "name": "",
          "type": "uint256"
        }
      ],
      "stateMutability": "view",
      "type": "function"
    },
    {
      "inputs": [
        {
          "internalType": "string",
          "name": "tokenURI",
          "type": "string"
        }
      ],
      "name": "create",
      "outputs": [
        {
          "internalType": "uint256",
          "name": "",
          "type": "uint256"
        }
      ],
      "stateMutability": "nonpayable",
      "type": "function"
    },
    {
      "inputs": [
        {
          "internalType": "uint256",
          "name": "_count",
          "type": "uint256"
        }
      ],
      "name": "createCollection",
      "outputs": [],
      "stateMutability": "payable",
      "type": "function"
    },
    {
      "inputs": [],
      "name": "getAllItems",
      "outputs": [
        {
          "components": [
            {
              "internalType": "uint256",
              "name": "tokenId",
              "type": "uint256"
            },
            {
              "internalType": "uint256",
              "name": "price",
              "type": "uint256"
            },
            {
              "internalType": "address payable",
              "name": "seller",
              "type": "address"
            },
            {
              "internalType": "address payable",
              "name": "owner",
              "type": "address"
            },
            {
              "internalType": "bool",
              "name": "sold",
              "type": "bool"
            }
          ],
          "internalType": "struct Amative.MarketItem[]",
          "name": "",
          "type": "tuple[]"
        }
      ],
      "stateMutability": "view",
      "type": "function"
    },
    {
      "inputs": [
        {
          "internalType": "uint256",
          "name": "tokenId",
          "type": "uint256"
        }
      ],
      "name": "getApproved",
      "outputs": [
        {
          "internalType": "address",
          "name": "",
          "type": "address"
        }
      ],
      "stateMutability": "view",
      "type": "function"
    },
    {
      "inputs": [],
      "name": "getItemsByOwner",
      "outputs": [
        {
          "components": [
            {
              "internalType": "uint256",
              "name": "tokenId",
              "type": "uint256"
            },
            {
              "internalType": "uint256",
              "name": "price",
              "type": "uint256"
            },
            {
              "internalType": "address payable",
              "name": "seller",
              "type": "address"
            },
            {
              "internalType": "address payable",
              "name": "owner",
              "type": "address"
            },
            {
              "internalType": "bool",
              "name": "sold",
              "type": "bool"
            }
          ],
          "internalType": "struct Amative.MarketItem[]",
          "name": "",
          "type": "tuple[]"
        }
      ],
      "stateMutability": "view",
      "type": "function"
    },
    {
      "inputs": [],
      "name": "getListedItemsByOwner",
      "outputs": [
        {
          "components": [
            {
              "internalType": "uint256",
              "name": "tokenId",
              "type": "uint256"
            },
            {
              "internalType": "uint256",
              "name": "price",
              "type": "uint256"
            },
            {
              "internalType": "address payable",
              "name": "seller",
              "type": "address"
            },
            {
              "internalType": "address payable",
              "name": "owner",
              "type": "address"
            },
            {
              "internalType": "bool",
              "name": "sold",
              "type": "bool"
            }
          ],
          "internalType": "struct Amative.MarketItem[]",
          "name": "",
          "type": "tuple[]"
        }
      ],
      "stateMutability": "view",
      "type": "function"
    },
    {
      "inputs": [],
      "name": "getListingPrice",
      "outputs": [
        {
          "internalType": "uint256",
          "name": "",
          "type": "uint256"
        }
      ],
      "stateMutability": "view",
      "type": "function"
    },
    {
      "inputs": [],
      "name": "getMarketItems",
      "outputs": [
        {
          "components": [
            {
              "internalType": "uint256",
              "name": "tokenId",
              "type": "uint256"
            },
            {
              "internalType": "uint256",
              "name": "price",
              "type": "uint256"
            },
            {
              "internalType": "address payable",
              "name": "seller",
              "type": "address"
            },
            {
              "internalType": "address payable",
              "name": "owner",
              "type": "address"
            },
            {
              "internalType": "bool",
              "name": "sold",
              "type": "bool"
            }
          ],
          "internalType": "struct Amative.MarketItem[]",
          "name": "",
          "type": "tuple[]"
        }
      ],
      "stateMutability": "view",
      "type": "function"
    },
    {
      "inputs": [
        {
          "internalType": "address",
          "name": "addr",
          "type": "address"
        }
      ],
      "name": "getTokenId",
      "outputs": [
        {
          "internalType": "uint256",
          "name": "",
          "type": "uint256"
        }
      ],
      "stateMutability": "view",
      "type": "function"
    },
    {
      "inputs": [
        {
          "internalType": "uint256",
          "name": "tokenId",
          "type": "uint256"
        }
      ],
      "name": "getTokenUri",
      "outputs": [
        {
          "internalType": "string",
          "name": "",
          "type": "string"
        }
      ],
      "stateMutability": "view",
      "type": "function"
    },
    {
      "inputs": [],
      "name": "getUnsoldItems",
      "outputs": [
        {
          "components": [
            {
              "internalType": "uint256",
              "name": "tokenId",
              "type": "uint256"
            },
            {
              "internalType": "uint256",
              "name": "price",
              "type": "uint256"
            },
            {
              "internalType": "address payable",
              "name": "seller",
              "type": "address"
            },
            {
              "internalType": "address payable",
              "name": "owner",
              "type": "address"
            },
            {
              "internalType": "bool",
              "name": "sold",
              "type": "bool"
            }
          ],
          "internalType": "struct Amative.MarketItem[]",
          "name": "",
          "type": "tuple[]"
        }
      ],
      "stateMutability": "view",
      "type": "function"
    },
    {
      "inputs": [
        {
          "internalType": "address",
          "name": "owner",
          "type": "address"
        },
        {
          "internalType": "address",
          "name": "operator",
          "type": "address"
        }
      ],
      "name": "isApprovedForAll",
      "outputs": [
        {
          "internalType": "bool",
          "name": "",
          "type": "bool"
        }
      ],
      "stateMutability": "view",
      "type": "function"
    },
    {
      "inputs": [
        {
          "internalType": "uint256",
          "name": "",
          "type": "uint256"
        }
      ],
      "name": "itemsInMarket",
      "outputs": [
        {
          "internalType": "uint256",
          "name": "tokenId",
          "type": "uint256"
        },
        {
          "internalType": "uint256",
          "name": "price",
          "type": "uint256"
        },
        {
          "internalType": "address payable",
          "name": "seller",
          "type": "address"
        },
        {
          "internalType": "address payable",
          "name": "owner",
          "type": "address"
        },
        {
          "internalType": "bool",
          "name": "sold",
          "type": "bool"
        }
      ],
      "stateMutability": "view",
      "type": "function"
    },
    {
      "inputs": [],
      "name": "name",
      "outputs": [
        {
          "internalType": "string",
          "name": "",
          "type": "string"
        }
      ],
      "stateMutability": "view",
      "type": "function"
    },
    {
      "inputs": [
        {
          "internalType": "address",
          "name": "_operator",
          "type": "address"
        },
        {
          "internalType": "address",
          "name": "_from",
          "type": "address"
        },
        {
          "internalType": "uint256",
          "name": "_tokenId",
          "type": "uint256"
        },
        {
          "internalType": "bytes",
          "name": "_data",
          "type": "bytes"
        }
      ],
      "name": "onERC721Received",
      "outputs": [
        {
          "internalType": "bytes4",
          "name": "",
          "type": "bytes4"
        }
      ],
      "stateMutability": "pure",
      "type": "function"
    },
    {
      "inputs": [
        {
          "internalType": "uint256",
          "name": "tokenId",
          "type": "uint256"
        }
      ],
      "name": "ownerOf",
      "outputs": [
        {
          "internalType": "address",
          "name": "",
          "type": "address"
        }
      ],
      "stateMutability": "view",
      "type": "function"
    },
    {
      "inputs": [
        {
          "internalType": "uint256",
          "name": "tokenId",
          "type": "uint256"
        }
      ],
      "name": "returnMarketItem",
      "outputs": [
        {
          "components": [
            {
              "internalType": "uint256",
              "name": "tokenId",
              "type": "uint256"
            },
            {
              "internalType": "uint256",
              "name": "price",
              "type": "uint256"
            },
            {
              "internalType": "address payable",
              "name": "seller",
              "type": "address"
            },
            {
              "internalType": "address payable",
              "name": "owner",
              "type": "address"
            },
            {
              "internalType": "bool",
              "name": "sold",
              "type": "bool"
            }
          ],
          "internalType": "struct Amative.MarketItem",
          "name": "",
          "type": "tuple"
        }
      ],
      "stateMutability": "view",
      "type": "function"
    },
    {
      "inputs": [
        {
          "internalType": "address",
          "name": "from",
          "type": "address"
        },
        {
          "internalType": "address",
          "name": "to",
          "type": "address"
        },
        {
          "internalType": "uint256",
          "name": "tokenId",
          "type": "uint256"
        }
      ],
      "name": "safeTransferFrom",
      "outputs": [],
      "stateMutability": "nonpayable",
      "type": "function"
    },
    {
      "inputs": [
        {
          "internalType": "address",
          "name": "from",
          "type": "address"
        },
        {
          "internalType": "address",
          "name": "to",
          "type": "address"
        },
        {
          "internalType": "uint256",
          "name": "tokenId",
          "type": "uint256"
        },
        {
          "internalType": "bytes",
          "name": "_data",
          "type": "bytes"
        }
      ],
      "name": "safeTransferFrom",
      "outputs": [],
      "stateMutability": "nonpayable",
      "type": "function"
    },
    {
      "inputs": [
        {
          "internalType": "uint256",
          "name": "tokenId",
          "type": "uint256"
        }
      ],
      "name": "sellItemAndTransferOwnership",
      "outputs": [],
      "stateMutability": "payable",
      "type": "function"
    },
    {
      "inputs": [
        {
          "internalType": "uint256",
          "name": "tokenId",
          "type": "uint256"
        },
        {
          "internalType": "uint256",
          "name": "price",
          "type": "uint256"
        }
      ],
      "name": "sellToken",
      "outputs": [],
      "stateMutability": "payable",
      "type": "function"
    },
    {
      "inputs": [
        {
          "internalType": "address",
          "name": "operator",
          "type": "address"
        },
        {
          "internalType": "bool",
          "name": "approved",
          "type": "bool"
        }
      ],
      "name": "setApprovalForAll",
      "outputs": [],
      "stateMutability": "nonpayable",
      "type": "function"
    },
    {
      "inputs": [
        {
          "internalType": "uint256",
          "name": "_price",
          "type": "uint256"
        }
      ],
      "name": "setListingPrice",
      "outputs": [],
      "stateMutability": "nonpayable",
      "type": "function"
    },
    {
      "inputs": [
        {
          "internalType": "uint256",
          "name": "tokenId",
          "type": "uint256"
        },
        {
          "internalType": "uint256",
          "name": "price",
          "type": "uint256"
        }
      ],
      "name": "setMarketItemPrice",
      "outputs": [],
      "stateMutability": "nonpayable",
      "type": "function"
    },
    {
      "inputs": [
        {
          "internalType": "bytes4",
          "name": "interfaceId",
          "type": "bytes4"
        }
      ],
      "name": "supportsInterface",
      "outputs": [
        {
          "internalType": "bool",
          "name": "",
          "type": "bool"
        }
      ],
      "stateMutability": "view",
      "type": "function"
    },
    {
      "inputs": [],
      "name": "symbol",
      "outputs": [
        {
          "internalType": "string",
          "name": "",
          "type": "string"
        }
      ],
      "stateMutability": "view",
      "type": "function"
    },
    {
      "inputs": [
        {
          "internalType": "uint256",
          "name": "tokenId",
          "type": "uint256"
        }
      ],
      "name": "tokenURI",
      "outputs": [
        {
          "internalType": "string",
          "name": "",
          "type": "string"
        }
      ],
      "stateMutability": "view",
      "type": "function"
    },
    {
      "inputs": [
        {
          "internalType": "address",
          "name": "from",
          "type": "address"
        },
        {
          "internalType": "address",
          "name": "to",
          "type": "address"
        },
        {
          "internalType": "uint256",
          "name": "tokenId",
          "type": "uint256"
        }
      ],
      "name": "transferFrom",
      "outputs": [],
      "stateMutability": "nonpayable",
      "type": "function"
    }
  ],
  "bytecode": "0x60a06040526658d15e17628000600a556000600b55662386f26fc10000600c553480156200002c57600080fd5b506040518060400160405280600781526020017f416d6174697665000000000000000000000000000000000000000000000000008152506040518060400160405280600381526020017f414d54000000000000000000000000000000000000000000000000000000000081525060016000819055508160019080519060200190620000b992919062000112565b508060029080519060200190620000d292919062000112565b5050503373ffffffffffffffffffffffffffffffffffffffff1660808173ffffffffffffffffffffffffffffffffffffffff1660601b8152505062000227565b8280546200012090620001c2565b90600052602060002090601f01602090048101928262000144576000855562000190565b82601f106200015f57805160ff191683800117855562000190565b8280016001018555821562000190579182015b828111156200018f57825182559160200191906001019062000172565b5b5090506200019f9190620001a3565b5090565b5b80821115620001be576000816000905550600101620001a4565b5090565b60006002820490506001821680620001db57607f821691505b60208210811415620001f257620001f1620001f8565b5b50919050565b7f4e487b7100000000000000000000000000000000000000000000000000000000600052602260045260246000fd5b60805160601c61531e6200027e60003960008181610d2001528181610d4b015281816113d30152818161186b01528181611cf2015281816126720152818161269d015281816126d00152613592015261531e6000f3fe6080604052600436106101d85760003560e01c806370a0823111610102578063c87b56dd11610095578063e985e9c511610064578063e985e9c5146106de578063e9e883f91461071b578063f153768614610737578063fbfce68b14610774576101d8565b8063c87b56dd14610619578063d0011d9d14610656578063df9d075114610672578063e5881724146106b3576101d8565b80639b8bc127116100d15780639b8bc1271461055f578063a22cb4651461058a578063b6a46b3b146105b3578063b88d4fde146105f0576101d8565b806370a08231146104915780637c726b69146104ce5780638ad91345146104f757806395d89b4114610534576101d8565b806322858f6e1161017a57806342842e0e1161014957806342842e0e146103d75780634ba1d6aa1461040057806350cd6a121461042b5780636352211e14610454576101d8565b806322858f6e1461032f57806323b872dd1461035a57806329aa3a421461038357806331b5b907146103ae576101d8565b8063095ea7b3116101b6578063095ea7b31461028257806312e85585146102ab578063150b7a02146102d65780631897bcf314610313576101d8565b806301ffc9a7146101dd57806306fdde031461021a578063081812fc14610245575b600080fd5b3480156101e957600080fd5b5061020460048036038101906101ff9190613e67565b6107b1565b60405161021191906145a5565b60405180910390f35b34801561022657600080fd5b5061022f610893565b60405161023c91906145db565b60405180910390f35b34801561025157600080fd5b5061026c60048036038101906102679190613efa565b610925565b60405161027991906144a0565b60405180910390f35b34801561028e57600080fd5b506102a960048036038101906102a49190613e2b565b6109aa565b005b3480156102b757600080fd5b506102c0610ac2565b6040516102cd9190614898565b60405180910390f35b3480156102e257600080fd5b506102fd60048036038101906102f89190613cf4565b610acc565b60405161030a91906145c0565b60405180910390f35b61032d60048036038101906103289190613f23565b610ae1565b005b34801561033b57600080fd5b50610344610d82565b6040516103519190614583565b60405180910390f35b34801561036657600080fd5b50610381600480360381019061037c9190613ca5565b6110bc565b005b34801561038f57600080fd5b5061039861111c565b6040516103a59190614583565b60405180910390f35b3480156103ba57600080fd5b506103d560048036038101906103d09190613eb9565b6113d1565b005b3480156103e357600080fd5b506103fe60048036038101906103f99190613ca5565b611443565b005b34801561040c57600080fd5b50610415611463565b6040516104229190614583565b60405180910390f35b34801561043757600080fd5b50610452600480360381019061044d9190613f23565b61167e565b005b34801561046057600080fd5b5061047b60048036038101906104769190613efa565b6116ff565b60405161048891906144a0565b60405180910390f35b34801561049d57600080fd5b506104b860048036038101906104b39190613c40565b6117b1565b6040516104c59190614898565b60405180910390f35b3480156104da57600080fd5b506104f560048036038101906104f09190613efa565b611869565b005b34801561050357600080fd5b5061051e60048036038101906105199190613efa565b611901565b60405161052b91906145db565b60405180910390f35b34801561054057600080fd5b506105496119a6565b60405161055691906145db565b60405180910390f35b34801561056b57600080fd5b50610574611a38565b6040516105819190614583565b60405180910390f35b34801561059657600080fd5b506105b160048036038101906105ac9190613def565b611cb3565b005b3480156105bf57600080fd5b506105da60048036038101906105d59190613eb9565b611cc9565b6040516105e79190614898565b60405180910390f35b3480156105fc57600080fd5b5061061760048036038101906106129190613d74565b611de8565b005b34801561062557600080fd5b50610640600480360381019061063b9190613efa565b611e4a565b60405161064d91906145db565b60405180910390f35b610670600480360381019061066b9190613efa565b611fbd565b005b34801561067e57600080fd5b5061069960048036038101906106949190613efa565b611ff6565b6040516106aa9594939291906148b3565b60405180910390f35b3480156106bf57600080fd5b506106c8612089565b6040516106d59190614583565b60405180910390f35b3480156106ea57600080fd5b5061070560048036038101906107009190613c69565b6123c3565b60405161071291906145a5565b60405180910390f35b61073560048036038101906107309190613efa565b612457565b005b34801561074357600080fd5b5061075e60048036038101906107599190613c40565b6127c8565b60405161076b9190614898565b60405180910390f35b34801561078057600080fd5b5061079b60048036038101906107969190613efa565b612811565b6040516107a8919061487d565b60405180910390f35b60007f80ac58cd000000000000000000000000000000000000000000000000000000007bffffffffffffffffffffffffffffffffffffffffffffffffffffffff1916827bffffffffffffffffffffffffffffffffffffffffffffffffffffffff1916148061087c57507f5b5e139f000000000000000000000000000000000000000000000000000000007bffffffffffffffffffffffffffffffffffffffffffffffffffffffff1916827bffffffffffffffffffffffffffffffffffffffffffffffffffffffff1916145b8061088c575061088b8261291f565b5b9050919050565b6060600180546108a290614be6565b80601f01602080910402602001604051908101604052809291908181526020018280546108ce90614be6565b801561091b5780601f106108f05761010080835404028352916020019161091b565b820191906000526020600020905b8154815290600101906020018083116108fe57829003601f168201915b5050505050905090565b600061093082612989565b61096f576040517f08c379a0000000000000000000000000000000000000000000000000000000008152600401610966906147bd565b60405180910390fd5b6005600083815260200190815260200160002060009054906101000a900473ffffffffffffffffffffffffffffffffffffffff169050919050565b60006109b5826116ff565b90508073ffffffffffffffffffffffffffffffffffffffff168373ffffffffffffffffffffffffffffffffffffffff161415610a26576040517f08c379a0000000000000000000000000000000000000000000000000000000008152600401610a1d9061481d565b60405180910390fd5b8073ffffffffffffffffffffffffffffffffffffffff16610a456129f5565b73ffffffffffffffffffffffffffffffffffffffff161480610a745750610a7381610a6e6129f5565b6123c3565b5b610ab3576040517f08c379a0000000000000000000000000000000000000000000000000000000008152600401610aaa906146fd565b60405180910390fd5b610abd83836129fd565b505050565b6000600a54905090565b600063150b7a0260e01b905095945050505050565b3373ffffffffffffffffffffffffffffffffffffffff16600f600084815260200190815260200160002060020160009054906101000a900473ffffffffffffffffffffffffffffffffffffffff1673ffffffffffffffffffffffffffffffffffffffff1614610b85576040517f08c379a0000000000000000000000000000000000000000000000000000000008152600401610b7c906147fd565b60405180910390fd5b600a543414610bc9576040517f08c379a0000000000000000000000000000000000000000000000000000000008152600401610bc09061473d565b60405180910390fd5b6000600f600084815260200190815260200160002060030160146101000a81548160ff02191690831515021790555080600f60008481526020019081526020016000206001018190555033600f600084815260200190815260200160002060020160006101000a81548173ffffffffffffffffffffffffffffffffffffffff021916908373ffffffffffffffffffffffffffffffffffffffff16021790555030600f600084815260200190815260200160002060030160006101000a81548173ffffffffffffffffffffffffffffffffffffffff021916908373ffffffffffffffffffffffffffffffffffffffff1602179055506000610cc96008612ab6565b90506000811415610cda5750610d7e565b610ce46008612ac4565b610d46600f600085815260200190815260200160002060030160009054906101000a900473ffffffffffffffffffffffffffffffffffffffff167f00000000000000000000000000000000000000000000000000000000000000006001612b20565b610d717f00000000000000000000000000000000000000000000000000000000000000006001611cb3565b610d7c333085612c8d565b505b5050565b60606000610d906009612ab6565b905060008060005b83811015610e39573373ffffffffffffffffffffffffffffffffffffffff16600f6000600184610dc89190614a09565b815260200190815260200160002060020160009054906101000a900473ffffffffffffffffffffffffffffffffffffffff1673ffffffffffffffffffffffffffffffffffffffff161415610e2657600183610e239190614a09565b92505b8080610e3190614c49565b915050610d98565b5060008267ffffffffffffffff811115610e7c577f4e487b7100000000000000000000000000000000000000000000000000000000600052604160045260246000fd5b604051908082528060200260200182016040528015610eb557816020015b610ea26139bd565b815260200190600190039081610e9a5790505b50905060005b848110156110b1573373ffffffffffffffffffffffffffffffffffffffff16600f6000600184610eeb9190614a09565b815260200190815260200160002060020160009054906101000a900473ffffffffffffffffffffffffffffffffffffffff1673ffffffffffffffffffffffffffffffffffffffff16141561109e576000600182610f489190614a09565b90506000600f60008381526020019081526020016000206040518060a001604052908160008201548152602001600182015481526020016002820160009054906101000a900473ffffffffffffffffffffffffffffffffffffffff1673ffffffffffffffffffffffffffffffffffffffff1673ffffffffffffffffffffffffffffffffffffffff1681526020016003820160009054906101000a900473ffffffffffffffffffffffffffffffffffffffff1673ffffffffffffffffffffffffffffffffffffffff1673ffffffffffffffffffffffffffffffffffffffff1681526020016003820160149054906101000a900460ff161515151581525050905080848681518110611081577f4e487b7100000000000000000000000000000000000000000000000000000000600052603260045260246000fd5b60200260200101819052506001856110999190614a09565b945050505b80806110a990614c49565b915050610ebb565b508094505050505090565b6110cd6110c76129f5565b82612ef4565b61110c576040517f08c379a00000000000000000000000000000000000000000000000000000000081526004016111039061483d565b60405180910390fd5b611117838383612c8d565b505050565b6060600061112a6009612ab6565b905060006111386008612ab6565b6111426009612ab6565b61114c9190614aea565b90506000808267ffffffffffffffff811115611191577f4e487b7100000000000000000000000000000000000000000000000000000000600052604160045260246000fd5b6040519080825280602002602001820160405280156111ca57816020015b6111b76139bd565b8152602001906001900390816111af5790505b50905060005b848110156113c6573073ffffffffffffffffffffffffffffffffffffffff16600f60006001846112009190614a09565b815260200190815260200160002060030160009054906101000a900473ffffffffffffffffffffffffffffffffffffffff1673ffffffffffffffffffffffffffffffffffffffff1614156113b357600060018261125d9190614a09565b90506000600f60008381526020019081526020016000206040518060a001604052908160008201548152602001600182015481526020016002820160009054906101000a900473ffffffffffffffffffffffffffffffffffffffff1673ffffffffffffffffffffffffffffffffffffffff1673ffffffffffffffffffffffffffffffffffffffff1681526020016003820160009054906101000a900473ffffffffffffffffffffffffffffffffffffffff1673ffffffffffffffffffffffffffffffffffffffff1673ffffffffffffffffffffffffffffffffffffffff1681526020016003820160149054906101000a900460ff161515151581525050905080848681518110611396577f4e487b7100000000000000000000000000000000000000000000000000000000600052603260045260246000fd5b60200260200101819052506001856113ae9190614a09565b945050505b80806113be90614c49565b9150506111d0565b508094505050505090565b7f000000000000000000000000000000000000000000000000000000000000000073ffffffffffffffffffffffffffffffffffffffff163373ffffffffffffffffffffffffffffffffffffffff161461142957600080fd5b80600d908051906020019061143f929190613a1a565b5050565b61145e83838360405180602001604052806000815250611de8565b505050565b606060006114716009612ab6565b90506000808267ffffffffffffffff8111156114b6577f4e487b7100000000000000000000000000000000000000000000000000000000600052604160045260246000fd5b6040519080825280602002602001820160405280156114ef57816020015b6114dc6139bd565b8152602001906001900390816114d45790505b50905060005b8381101561167457600060018261150c9190614a09565b90506000600f60008381526020019081526020016000206040518060a001604052908160008201548152602001600182015481526020016002820160009054906101000a900473ffffffffffffffffffffffffffffffffffffffff1673ffffffffffffffffffffffffffffffffffffffff1673ffffffffffffffffffffffffffffffffffffffff1681526020016003820160009054906101000a900473ffffffffffffffffffffffffffffffffffffffff1673ffffffffffffffffffffffffffffffffffffffff1673ffffffffffffffffffffffffffffffffffffffff1681526020016003820160149054906101000a900460ff161515151581525050905080848681518110611645577f4e487b7100000000000000000000000000000000000000000000000000000000600052603260045260246000fd5b602002602001018190525060018561165d9190614a09565b94505050808061166c90614c49565b9150506114f5565b5080935050505090565b6000600f600084815260200190815260200160002090503373ffffffffffffffffffffffffffffffffffffffff168160030160009054906101000a900473ffffffffffffffffffffffffffffffffffffffff1673ffffffffffffffffffffffffffffffffffffffff16146116f157600080fd5b818160010181905550505050565b6000806003600084815260200190815260200160002060009054906101000a900473ffffffffffffffffffffffffffffffffffffffff169050600073ffffffffffffffffffffffffffffffffffffffff168173ffffffffffffffffffffffffffffffffffffffff1614156117a8576040517f08c379a000000000000000000000000000000000000000000000000000000000815260040161179f9061477d565b60405180910390fd5b80915050919050565b60008073ffffffffffffffffffffffffffffffffffffffff168273ffffffffffffffffffffffffffffffffffffffff161415611822576040517f08c379a00000000000000000000000000000000000000000000000000000000081526004016118199061475d565b60405180910390fd5b600460008373ffffffffffffffffffffffffffffffffffffffff1673ffffffffffffffffffffffffffffffffffffffff168152602001908152602001600020549050919050565b7f000000000000000000000000000000000000000000000000000000000000000073ffffffffffffffffffffffffffffffffffffffff163373ffffffffffffffffffffffffffffffffffffffff16146118f7576040517f08c379a00000000000000000000000000000000000000000000000000000000081526004016118ee906146dd565b60405180910390fd5b80600a8190555050565b606060106000838152602001908152602001600020805461192190614be6565b80601f016020809104026020016040519081016040528092919081815260200182805461194d90614be6565b801561199a5780601f1061196f5761010080835404028352916020019161199a565b820191906000526020600020905b81548152906001019060200180831161197d57829003601f168201915b50505050509050919050565b6060600280546119b590614be6565b80601f01602080910402602001604051908101604052809291908181526020018280546119e190614be6565b8015611a2e5780601f10611a0357610100808354040283529160200191611a2e565b820191906000526020600020905b815481529060010190602001808311611a1157829003601f168201915b5050505050905090565b60606000611a466009612ab6565b90506000611a546008612ab6565b611a5e6009612ab6565b611a689190614aea565b90506000808267ffffffffffffffff811115611aad577f4e487b7100000000000000000000000000000000000000000000000000000000600052604160045260246000fd5b604051908082528060200260200182016040528015611ae657816020015b611ad36139bd565b815260200190600190039081611acb5790505b50905060005b84811015611ca85760001515600f6000600184611b099190614a09565b815260200190815260200160002060030160149054906101000a900460ff1615151415611c95576000600182611b3f9190614a09565b90506000600f60008381526020019081526020016000206040518060a001604052908160008201548152602001600182015481526020016002820160009054906101000a900473ffffffffffffffffffffffffffffffffffffffff1673ffffffffffffffffffffffffffffffffffffffff1673ffffffffffffffffffffffffffffffffffffffff1681526020016003820160009054906101000a900473ffffffffffffffffffffffffffffffffffffffff1673ffffffffffffffffffffffffffffffffffffffff1673ffffffffffffffffffffffffffffffffffffffff1681526020016003820160149054906101000a900460ff161515151581525050905080848681518110611c78577f4e487b7100000000000000000000000000000000000000000000000000000000600052603260045260246000fd5b6020026020010181905250600185611c909190614a09565b945050505b8080611ca090614c49565b915050611aec565b508094505050505090565b611cc5611cbe6129f5565b8383612b20565b5050565b6000611cd56009612fd2565b6000611ce16009612ab6565b9050611ced3382612fe8565b611d187f00000000000000000000000000000000000000000000000000000000000000006001611cb3565b611d2181613006565b336012600083815260200190815260200160002060006101000a81548173ffffffffffffffffffffffffffffffffffffffff021916908373ffffffffffffffffffffffffffffffffffffffff16021790555082601060008381526020019081526020016000209080519060200190611d9a929190613a1a565b5080601160003373ffffffffffffffffffffffffffffffffffffffff1673ffffffffffffffffffffffffffffffffffffffff1681526020019081526020016000208190555080915050919050565b611df9611df36129f5565b83612ef4565b611e38576040517f08c379a0000000000000000000000000000000000000000000000000000000008152600401611e2f9061483d565b60405180910390fd5b611e44848484846132d0565b50505050565b6060611e5582612989565b611e94576040517f08c379a0000000000000000000000000000000000000000000000000000000008152600401611e8b906147dd565b60405180910390fd5b6000601060008481526020019081526020016000208054611eb490614be6565b80601f0160208091040260200160405190810160405280929190818152602001828054611ee090614be6565b8015611f2d5780601f10611f0257610100808354040283529160200191611f2d565b820191906000526020600020905b815481529060010190602001808311611f1057829003601f168201915b505050505090506000611f3e61332c565b9050600081511415611f54578192505050611fb8565b600082511115611f89578082604051602001611f7192919061447c565b60405160208183030381529060405292505050611fb8565b80611f93856133be565b604051602001611fa492919061447c565b604051602081830303815290604052925050505b919050565b6000611fc96009612ab6565b905060005b82811015611ff157611fde61356b565b8080611fe990614c49565b915050611fce565b505050565b600e818154811061200657600080fd5b90600052602060002090600402016000915090508060000154908060010154908060020160009054906101000a900473ffffffffffffffffffffffffffffffffffffffff16908060030160009054906101000a900473ffffffffffffffffffffffffffffffffffffffff16908060030160149054906101000a900460ff16905085565b606060006120976009612ab6565b905060008060005b83811015612140573373ffffffffffffffffffffffffffffffffffffffff16600f60006001846120cf9190614a09565b815260200190815260200160002060030160009054906101000a900473ffffffffffffffffffffffffffffffffffffffff1673ffffffffffffffffffffffffffffffffffffffff16141561212d5760018361212a9190614a09565b92505b808061213890614c49565b91505061209f565b5060008267ffffffffffffffff811115612183577f4e487b7100000000000000000000000000000000000000000000000000000000600052604160045260246000fd5b6040519080825280602002602001820160405280156121bc57816020015b6121a96139bd565b8152602001906001900390816121a15790505b50905060005b848110156123b8573373ffffffffffffffffffffffffffffffffffffffff16600f60006001846121f29190614a09565b815260200190815260200160002060030160009054906101000a900473ffffffffffffffffffffffffffffffffffffffff1673ffffffffffffffffffffffffffffffffffffffff1614156123a557600060018261224f9190614a09565b90506000600f60008381526020019081526020016000206040518060a001604052908160008201548152602001600182015481526020016002820160009054906101000a900473ffffffffffffffffffffffffffffffffffffffff1673ffffffffffffffffffffffffffffffffffffffff1673ffffffffffffffffffffffffffffffffffffffff1681526020016003820160009054906101000a900473ffffffffffffffffffffffffffffffffffffffff1673ffffffffffffffffffffffffffffffffffffffff1673ffffffffffffffffffffffffffffffffffffffff1681526020016003820160149054906101000a900460ff161515151581525050905080848681518110612388577f4e487b7100000000000000000000000000000000000000000000000000000000600052603260045260246000fd5b60200260200101819052506001856123a09190614a09565b945050505b80806123b090614c49565b9150506121c2565b508094505050505090565b6000600660008473ffffffffffffffffffffffffffffffffffffffff1673ffffffffffffffffffffffffffffffffffffffff16815260200190815260200160002060008373ffffffffffffffffffffffffffffffffffffffff1673ffffffffffffffffffffffffffffffffffffffff16815260200190815260200160002060009054906101000a900460ff16905092915050565b6002600054141561249d576040517f08c379a00000000000000000000000000000000000000000000000000000000081526004016124949061485d565b60405180910390fd5b60026000819055506000600f60008381526020019081526020016000206001015490506000600f600084815260200190815260200160002060020160009054906101000a900473ffffffffffffffffffffffffffffffffffffffff169050670de0b6b3a76400008261250f9190614a90565b9150813414612553576040517f08c379a000000000000000000000000000000000000000000000000000000000815260040161254a9061471d565b60405180910390fd5b33600f600085815260200190815260200160002060030160006101000a81548173ffffffffffffffffffffffffffffffffffffffff021916908373ffffffffffffffffffffffffffffffffffffffff16021790555033600f600085815260200190815260200160002060020160006101000a81548173ffffffffffffffffffffffffffffffffffffffff021916908373ffffffffffffffffffffffffffffffffffffffff1602179055506001600f600085815260200190815260200160002060030160146101000a81548160ff0219169083151502179055506126366008612fd2565b612698600f600085815260200190815260200160002060030160009054906101000a900473ffffffffffffffffffffffffffffffffffffffff167f00000000000000000000000000000000000000000000000000000000000000006001612b20565b6126c37f00000000000000000000000000000000000000000000000000000000000000006001611cb3565b6126ce303385612c8d565b7f000000000000000000000000000000000000000000000000000000000000000073ffffffffffffffffffffffffffffffffffffffff166108fc600a549081150290604051600060405180830381858888f19350505050158015612736573d6000803e3d6000fd5b508073ffffffffffffffffffffffffffffffffffffffff166108fc349081150290604051600060405180830381858888f1935050505015801561277d573d6000803e3d6000fd5b50827fd933138c87309d68c67a25fa3fbafbe2eca2fc4b4f83da8f27314fc74fca58c5823360016040516127b3939291906144bb565b60405180910390a25050600160008190555050565b6000601160008373ffffffffffffffffffffffffffffffffffffffff1673ffffffffffffffffffffffffffffffffffffffff168152602001908152602001600020549050919050565b6128196139bd565b6000600f60008481526020019081526020016000206040518060a001604052908160008201548152602001600182015481526020016002820160009054906101000a900473ffffffffffffffffffffffffffffffffffffffff1673ffffffffffffffffffffffffffffffffffffffff1673ffffffffffffffffffffffffffffffffffffffff1681526020016003820160009054906101000a900473ffffffffffffffffffffffffffffffffffffffff1673ffffffffffffffffffffffffffffffffffffffff1673ffffffffffffffffffffffffffffffffffffffff1681526020016003820160149054906101000a900460ff161515151581525050905080915050919050565b60007f01ffc9a7000000000000000000000000000000000000000000000000000000007bffffffffffffffffffffffffffffffffffffffffffffffffffffffff1916827bffffffffffffffffffffffffffffffffffffffffffffffffffffffff1916149050919050565b60008073ffffffffffffffffffffffffffffffffffffffff166003600084815260200190815260200160002060009054906101000a900473ffffffffffffffffffffffffffffffffffffffff1673ffffffffffffffffffffffffffffffffffffffff1614159050919050565b600033905090565b816005600083815260200190815260200160002060006101000a81548173ffffffffffffffffffffffffffffffffffffffff021916908373ffffffffffffffffffffffffffffffffffffffff160217905550808273ffffffffffffffffffffffffffffffffffffffff16612a70836116ff565b73ffffffffffffffffffffffffffffffffffffffff167f8c5be1e5ebec7d5bd14f71427d1e84f3dd0314c0f7b2291e5b200ac8c7c3b92560405160405180910390a45050565b600081600001549050919050565b60008160000154905060008111612b10576040517f08c379a0000000000000000000000000000000000000000000000000000000008152600401612b07906145fd565b60405180910390fd5b6001810382600001819055505050565b8173ffffffffffffffffffffffffffffffffffffffff168373ffffffffffffffffffffffffffffffffffffffff161415612b8f576040517f08c379a0000000000000000000000000000000000000000000000000000000008152600401612b869061469d565b60405180910390fd5b80600660008573ffffffffffffffffffffffffffffffffffffffff1673ffffffffffffffffffffffffffffffffffffffff16815260200190815260200160002060008473ffffffffffffffffffffffffffffffffffffffff1673ffffffffffffffffffffffffffffffffffffffff16815260200190815260200160002060006101000a81548160ff0219169083151502179055508173ffffffffffffffffffffffffffffffffffffffff168373ffffffffffffffffffffffffffffffffffffffff167f17307eab39ab6107e8899845ad3d59bd9653f200f220920489ca2b5937696c3183604051612c8091906145a5565b60405180910390a3505050565b8273ffffffffffffffffffffffffffffffffffffffff16612cad826116ff565b73ffffffffffffffffffffffffffffffffffffffff1614612d03576040517f08c379a0000000000000000000000000000000000000000000000000000000008152600401612cfa9061463d565b60405180910390fd5b600073ffffffffffffffffffffffffffffffffffffffff168273ffffffffffffffffffffffffffffffffffffffff161415612d73576040517f08c379a0000000000000000000000000000000000000000000000000000000008152600401612d6a9061467d565b60405180910390fd5b612d7e8383836135c4565b612d896000826129fd565b6001600460008573ffffffffffffffffffffffffffffffffffffffff1673ffffffffffffffffffffffffffffffffffffffff1681526020019081526020016000206000828254612dd99190614aea565b925050819055506001600460008473ffffffffffffffffffffffffffffffffffffffff1673ffffffffffffffffffffffffffffffffffffffff1681526020019081526020016000206000828254612e309190614a09565b92505081905550816003600083815260200190815260200160002060006101000a81548173ffffffffffffffffffffffffffffffffffffffff021916908373ffffffffffffffffffffffffffffffffffffffff160217905550808273ffffffffffffffffffffffffffffffffffffffff168473ffffffffffffffffffffffffffffffffffffffff167fddf252ad1be2c89b69c2b068fc378daa952ba7f163c4a11628f55a4df523b3ef60405160405180910390a4612eef8383836135c9565b505050565b6000612eff82612989565b612f3e576040517f08c379a0000000000000000000000000000000000000000000000000000000008152600401612f35906146bd565b60405180910390fd5b6000612f49836116ff565b90508073ffffffffffffffffffffffffffffffffffffffff168473ffffffffffffffffffffffffffffffffffffffff161480612f8b5750612f8a81856123c3565b5b80612fc957508373ffffffffffffffffffffffffffffffffffffffff16612fb184610925565b73ffffffffffffffffffffffffffffffffffffffff16145b91505092915050565b6001816000016000828254019250508190555050565b6130028282604051806020016040528060008152506135ce565b5050565b60006305f5e10090506040518060a001604052808381526020018281526020013373ffffffffffffffffffffffffffffffffffffffff1681526020013073ffffffffffffffffffffffffffffffffffffffff16815260200160001515815250600f6000848152602001908152602001600020600082015181600001556020820151816001015560408201518160020160006101000a81548173ffffffffffffffffffffffffffffffffffffffff021916908373ffffffffffffffffffffffffffffffffffffffff16021790555060608201518160030160006101000a81548173ffffffffffffffffffffffffffffffffffffffff021916908373ffffffffffffffffffffffffffffffffffffffff16021790555060808201518160030160146101000a81548160ff021916908315150217905550905050613148333084612c8d565b600e6040518060a001604052808481526020018381526020013373ffffffffffffffffffffffffffffffffffffffff1681526020013073ffffffffffffffffffffffffffffffffffffffff168152602001600015158152509080600181540180825580915050600190039060005260206000209060040201600090919091909150600082015181600001556020820151816001015560408201518160020160006101000a81548173ffffffffffffffffffffffffffffffffffffffff021916908373ffffffffffffffffffffffffffffffffffffffff16021790555060608201518160030160006101000a81548173ffffffffffffffffffffffffffffffffffffffff021916908373ffffffffffffffffffffffffffffffffffffffff16021790555060808201518160030160146101000a81548160ff0219169083151502179055505050817fb640004f1d14576d0c209e240cad0410e0d8c0c33a09375861fbadae2588a98d33308460006040516132c494939291906144f2565b60405180910390a25050565b6132db848484612c8d565b6132e784848484613629565b613326576040517f08c379a000000000000000000000000000000000000000000000000000000000815260040161331d9061461d565b60405180910390fd5b50505050565b6060600d805461333b90614be6565b80601f016020809104026020016040519081016040528092919081815260200182805461336790614be6565b80156133b45780601f10613389576101008083540402835291602001916133b4565b820191906000526020600020905b81548152906001019060200180831161339757829003601f168201915b5050505050905090565b60606000821415613406576040518060400160405280600181526020017f30000000000000000000000000000000000000000000000000000000000000008152509050613566565b600082905060005b6000821461343857808061342190614c49565b915050600a826134319190614a5f565b915061340e565b60008167ffffffffffffffff81111561347a577f4e487b7100000000000000000000000000000000000000000000000000000000600052604160045260246000fd5b6040519080825280601f01601f1916602001820160405280156134ac5781602001600182028036833780820191505090505b5090505b6000851461355f576001826134c59190614aea565b9150600a856134d49190614c92565b60306134e09190614a09565b60f81b81838151811061351c577f4e487b7100000000000000000000000000000000000000000000000000000000600052603260045260246000fd5b60200101907effffffffffffffffffffffffffffffffffffffffffffffffffffffffffffff1916908160001a905350600a856135589190614a5f565b94506134b0565b8093505050505b919050565b6135756009612fd2565b60006135816009612ab6565b905061358d3382612fe8565b6135b87f00000000000000000000000000000000000000000000000000000000000000006001611cb3565b6135c181613006565b50565b505050565b505050565b6135d883836137c0565b6135e56000848484613629565b613624576040517f08c379a000000000000000000000000000000000000000000000000000000000815260040161361b9061461d565b60405180910390fd5b505050565b600061364a8473ffffffffffffffffffffffffffffffffffffffff1661399a565b156137b3578373ffffffffffffffffffffffffffffffffffffffff1663150b7a026136736129f5565b8786866040518563ffffffff1660e01b81526004016136959493929190614537565b602060405180830381600087803b1580156136af57600080fd5b505af19250505080156136e057506040513d601f19601f820116820180604052508101906136dd9190613e90565b60015b613763573d8060008114613710576040519150601f19603f3d011682016040523d82523d6000602084013e613715565b606091505b5060008151141561375b576040517f08c379a00000000000000000000000000000000000000000000000000000000081526004016137529061461d565b60405180910390fd5b805181602001fd5b63150b7a0260e01b7bffffffffffffffffffffffffffffffffffffffffffffffffffffffff1916817bffffffffffffffffffffffffffffffffffffffffffffffffffffffff1916149150506137b8565b600190505b949350505050565b600073ffffffffffffffffffffffffffffffffffffffff168273ffffffffffffffffffffffffffffffffffffffff161415613830576040517f08c379a00000000000000000000000000000000000000000000000000000000081526004016138279061479d565b60405180910390fd5b61383981612989565b15613879576040517f08c379a00000000000000000000000000000000000000000000000000000000081526004016138709061465d565b60405180910390fd5b613885600083836135c4565b6001600460008473ffffffffffffffffffffffffffffffffffffffff1673ffffffffffffffffffffffffffffffffffffffff16815260200190815260200160002060008282546138d59190614a09565b92505081905550816003600083815260200190815260200160002060006101000a81548173ffffffffffffffffffffffffffffffffffffffff021916908373ffffffffffffffffffffffffffffffffffffffff160217905550808273ffffffffffffffffffffffffffffffffffffffff16600073ffffffffffffffffffffffffffffffffffffffff167fddf252ad1be2c89b69c2b068fc378daa952ba7f163c4a11628f55a4df523b3ef60405160405180910390a4613996600083836135c9565b5050565b6000808273ffffffffffffffffffffffffffffffffffffffff163b119050919050565b6040518060a001604052806000815260200160008152602001600073ffffffffffffffffffffffffffffffffffffffff168152602001600073ffffffffffffffffffffffffffffffffffffffff1681526020016000151581525090565b828054613a2690614be6565b90600052602060002090601f016020900481019282613a485760008555613a8f565b82601f10613a6157805160ff1916838001178555613a8f565b82800160010185558215613a8f579182015b82811115613a8e578251825591602001919060010190613a73565b5b509050613a9c9190613aa0565b5090565b5b80821115613ab9576000816000905550600101613aa1565b5090565b6000613ad0613acb8461492b565b614906565b905082815260208101848484011115613ae857600080fd5b613af3848285614ba4565b509392505050565b6000613b0e613b098461495c565b614906565b905082815260208101848484011115613b2657600080fd5b613b31848285614ba4565b509392505050565b600081359050613b488161528c565b92915050565b600081359050613b5d816152a3565b92915050565b600081359050613b72816152ba565b92915050565b600081519050613b87816152ba565b92915050565b60008083601f840112613b9f57600080fd5b8235905067ffffffffffffffff811115613bb857600080fd5b602083019150836001820283011115613bd057600080fd5b9250929050565b600082601f830112613be857600080fd5b8135613bf8848260208601613abd565b91505092915050565b600082601f830112613c1257600080fd5b8135613c22848260208601613afb565b91505092915050565b600081359050613c3a816152d1565b92915050565b600060208284031215613c5257600080fd5b6000613c6084828501613b39565b91505092915050565b60008060408385031215613c7c57600080fd5b6000613c8a85828601613b39565b9250506020613c9b85828601613b39565b9150509250929050565b600080600060608486031215613cba57600080fd5b6000613cc886828701613b39565b9350506020613cd986828701613b39565b9250506040613cea86828701613c2b565b9150509250925092565b600080600080600060808688031215613d0c57600080fd5b6000613d1a88828901613b39565b9550506020613d2b88828901613b39565b9450506040613d3c88828901613c2b565b935050606086013567ffffffffffffffff811115613d5957600080fd5b613d6588828901613b8d565b92509250509295509295909350565b60008060008060808587031215613d8a57600080fd5b6000613d9887828801613b39565b9450506020613da987828801613b39565b9350506040613dba87828801613c2b565b925050606085013567ffffffffffffffff811115613dd757600080fd5b613de387828801613bd7565b91505092959194509250565b60008060408385031215613e0257600080fd5b6000613e1085828601613b39565b9250506020613e2185828601613b4e565b9150509250929050565b60008060408385031215613e3e57600080fd5b6000613e4c85828601613b39565b9250506020613e5d85828601613c2b565b9150509250929050565b600060208284031215613e7957600080fd5b6000613e8784828501613b63565b91505092915050565b600060208284031215613ea257600080fd5b6000613eb084828501613b78565b91505092915050565b600060208284031215613ecb57600080fd5b600082013567ffffffffffffffff811115613ee557600080fd5b613ef184828501613c01565b91505092915050565b600060208284031215613f0c57600080fd5b6000613f1a84828501613c2b565b91505092915050565b60008060408385031215613f3657600080fd5b6000613f4485828601613c2b565b9250506020613f5585828601613c2b565b9150509250929050565b6000613f6b838361438e565b60a08301905092915050565b613f8081614b30565b82525050565b613f8f81614b30565b82525050565b613f9e81614b1e565b82525050565b6000613faf8261499d565b613fb981856149cb565b9350613fc48361498d565b8060005b83811015613ff5578151613fdc8882613f5f565b9750613fe7836149be565b925050600181019050613fc8565b5085935050505092915050565b61400b81614b42565b82525050565b61401a81614b42565b82525050565b61402981614b4e565b82525050565b600061403a826149a8565b61404481856149dc565b9350614054818560208601614bb3565b61405d81614d7f565b840191505092915050565b6000614073826149b3565b61407d81856149ed565b935061408d818560208601614bb3565b61409681614d7f565b840191505092915050565b60006140ac826149b3565b6140b681856149fe565b93506140c6818560208601614bb3565b80840191505092915050565b60006140df601b836149ed565b91506140ea82614d90565b602082019050919050565b60006141026032836149ed565b915061410d82614db9565b604082019050919050565b60006141256025836149ed565b915061413082614e08565b604082019050919050565b6000614148601c836149ed565b915061415382614e57565b602082019050919050565b600061416b6024836149ed565b915061417682614e80565b604082019050919050565b600061418e6019836149ed565b915061419982614ecf565b602082019050919050565b60006141b1602c836149ed565b91506141bc82614ef8565b604082019050919050565b60006141d46023836149ed565b91506141df82614f47565b604082019050919050565b60006141f76038836149ed565b915061420282614f96565b604082019050919050565b600061421a6013836149ed565b915061422582614fe5565b602082019050919050565b600061423d6018836149ed565b91506142488261500e565b602082019050919050565b6000614260602a836149ed565b915061426b82615037565b604082019050919050565b60006142836029836149ed565b915061428e82615086565b604082019050919050565b60006142a66020836149ed565b91506142b1826150d5565b602082019050919050565b60006142c9602c836149ed565b91506142d4826150fe565b604082019050919050565b60006142ec602f836149ed565b91506142f78261514d565b604082019050919050565b600061430f6017836149ed565b915061431a8261519c565b602082019050919050565b60006143326021836149ed565b915061433d826151c5565b604082019050919050565b60006143556031836149ed565b915061436082615214565b604082019050919050565b6000614378601f836149ed565b915061438382615263565b602082019050919050565b60a0820160008201516143a4600085018261445e565b5060208201516143b7602085018261445e565b5060408201516143ca6040850182613f77565b5060608201516143dd6060850182613f77565b5060808201516143f06080850182614002565b50505050565b60a08201600082015161440c600085018261445e565b50602082015161441f602085018261445e565b5060408201516144326040850182613f77565b5060608201516144456060850182613f77565b5060808201516144586080850182614002565b50505050565b61446781614b9a565b82525050565b61447681614b9a565b82525050565b600061448882856140a1565b915061449482846140a1565b91508190509392505050565b60006020820190506144b56000830184613f95565b92915050565b60006060820190506144d06000830186613f95565b6144dd6020830185613f95565b6144ea6040830184614011565b949350505050565b60006080820190506145076000830187613f95565b6145146020830186613f95565b614521604083018561446d565b61452e6060830184614011565b95945050505050565b600060808201905061454c6000830187613f95565b6145596020830186613f95565b614566604083018561446d565b8181036060830152614578818461402f565b905095945050505050565b6000602082019050818103600083015261459d8184613fa4565b905092915050565b60006020820190506145ba6000830184614011565b92915050565b60006020820190506145d56000830184614020565b92915050565b600060208201905081810360008301526145f58184614068565b905092915050565b60006020820190508181036000830152614616816140d2565b9050919050565b60006020820190508181036000830152614636816140f5565b9050919050565b6000602082019050818103600083015261465681614118565b9050919050565b600060208201905081810360008301526146768161413b565b9050919050565b600060208201905081810360008301526146968161415e565b9050919050565b600060208201905081810360008301526146b681614181565b9050919050565b600060208201905081810360008301526146d6816141a4565b9050919050565b600060208201905081810360008301526146f6816141c7565b9050919050565b60006020820190508181036000830152614716816141ea565b9050919050565b600060208201905081810360008301526147368161420d565b9050919050565b6000602082019050818103600083015261475681614230565b9050919050565b6000602082019050818103600083015261477681614253565b9050919050565b6000602082019050818103600083015261479681614276565b9050919050565b600060208201905081810360008301526147b681614299565b9050919050565b600060208201905081810360008301526147d6816142bc565b9050919050565b600060208201905081810360008301526147f6816142df565b9050919050565b6000602082019050818103600083015261481681614302565b9050919050565b6000602082019050818103600083015261483681614325565b9050919050565b6000602082019050818103600083015261485681614348565b9050919050565b600060208201905081810360008301526148768161436b565b9050919050565b600060a08201905061489260008301846143f6565b92915050565b60006020820190506148ad600083018461446d565b92915050565b600060a0820190506148c8600083018861446d565b6148d5602083018761446d565b6148e26040830186613f86565b6148ef6060830185613f86565b6148fc6080830184614011565b9695505050505050565b6000614910614921565b905061491c8282614c18565b919050565b6000604051905090565b600067ffffffffffffffff82111561494657614945614d50565b5b61494f82614d7f565b9050602081019050919050565b600067ffffffffffffffff82111561497757614976614d50565b5b61498082614d7f565b9050602081019050919050565b6000819050602082019050919050565b600081519050919050565b600081519050919050565b600081519050919050565b6000602082019050919050565b600082825260208201905092915050565b600082825260208201905092915050565b600082825260208201905092915050565b600081905092915050565b6000614a1482614b9a565b9150614a1f83614b9a565b9250827fffffffffffffffffffffffffffffffffffffffffffffffffffffffffffffffff03821115614a5457614a53614cc3565b5b828201905092915050565b6000614a6a82614b9a565b9150614a7583614b9a565b925082614a8557614a84614cf2565b5b828204905092915050565b6000614a9b82614b9a565b9150614aa683614b9a565b9250817fffffffffffffffffffffffffffffffffffffffffffffffffffffffffffffffff0483118215151615614adf57614ade614cc3565b5b828202905092915050565b6000614af582614b9a565b9150614b0083614b9a565b925082821015614b1357614b12614cc3565b5b828203905092915050565b6000614b2982614b7a565b9050919050565b6000614b3b82614b7a565b9050919050565b60008115159050919050565b60007fffffffff0000000000000000000000000000000000000000000000000000000082169050919050565b600073ffffffffffffffffffffffffffffffffffffffff82169050919050565b6000819050919050565b82818337600083830152505050565b60005b83811015614bd1578082015181840152602081019050614bb6565b83811115614be0576000848401525b50505050565b60006002820490506001821680614bfe57607f821691505b60208210811415614c1257614c11614d21565b5b50919050565b614c2182614d7f565b810181811067ffffffffffffffff82111715614c4057614c3f614d50565b5b80604052505050565b6000614c5482614b9a565b91507fffffffffffffffffffffffffffffffffffffffffffffffffffffffffffffffff821415614c8757614c86614cc3565b5b600182019050919050565b6000614c9d82614b9a565b9150614ca883614b9a565b925082614cb857614cb7614cf2565b5b828206905092915050565b7f4e487b7100000000000000000000000000000000000000000000000000000000600052601160045260246000fd5b7f4e487b7100000000000000000000000000000000000000000000000000000000600052601260045260246000fd5b7f4e487b7100000000000000000000000000000000000000000000000000000000600052602260045260246000fd5b7f4e487b7100000000000000000000000000000000000000000000000000000000600052604160045260246000fd5b6000601f19601f8301169050919050565b7f436f756e7465723a2064656372656d656e74206f766572666c6f770000000000600082015250565b7f4552433732313a207472616e7366657220746f206e6f6e20455243373231526560008201527f63656976657220696d706c656d656e7465720000000000000000000000000000602082015250565b7f4552433732313a207472616e736665722066726f6d20696e636f72726563742060008201527f6f776e6572000000000000000000000000000000000000000000000000000000602082015250565b7f4552433732313a20746f6b656e20616c7265616479206d696e74656400000000600082015250565b7f4552433732313a207472616e7366657220746f20746865207a65726f2061646460008201527f7265737300000000000000000000000000000000000000000000000000000000602082015250565b7f4552433732313a20617070726f766520746f2063616c6c657200000000000000600082015250565b7f4552433732313a206f70657261746f7220717565727920666f72206e6f6e657860008201527f697374656e7420746f6b656e0000000000000000000000000000000000000000602082015250565b7f4f6e6c79206f776e65722063616e20757064617465206c697374696e6720707260008201527f6963650000000000000000000000000000000000000000000000000000000000602082015250565b7f4552433732313a20617070726f76652063616c6c6572206973206e6f74206f7760008201527f6e6572206e6f7220617070726f76656420666f7220616c6c0000000000000000602082015250565b7f5375626d69742041736b696e6720507269636500000000000000000000000000600082015250565b7f5072696365206d75737420657175616c206c697374696e670000000000000000600082015250565b7f4552433732313a2062616c616e636520717565727920666f7220746865207a6560008201527f726f206164647265737300000000000000000000000000000000000000000000602082015250565b7f4552433732313a206f776e657220717565727920666f72206e6f6e657869737460008201527f656e7420746f6b656e0000000000000000000000000000000000000000000000602082015250565b7f4552433732313a206d696e7420746f20746865207a65726f2061646472657373600082015250565b7f4552433732313a20617070726f76656420717565727920666f72206e6f6e657860008201527f697374656e7420746f6b656e0000000000000000000000000000000000000000602082015250565b7f4552433732314d657461646174613a2055524920717565727920666f72206e6f60008201527f6e6578697374656e7420746f6b656e0000000000000000000000000000000000602082015250565b7f4f6e6c79206f776e6572732063616e20646f2074686973000000000000000000600082015250565b7f4552433732313a20617070726f76616c20746f2063757272656e74206f776e6560008201527f7200000000000000000000000000000000000000000000000000000000000000602082015250565b7f4552433732313a207472616e736665722063616c6c6572206973206e6f74206f60008201527f776e6572206e6f7220617070726f766564000000000000000000000000000000602082015250565b7f5265656e7472616e637947756172643a207265656e7472616e742063616c6c00600082015250565b61529581614b1e565b81146152a057600080fd5b50565b6152ac81614b42565b81146152b757600080fd5b50565b6152c381614b4e565b81146152ce57600080fd5b50565b6152da81614b9a565b81146152e557600080fd5b5056fea2646970667358221220ad881bcd14f15e4b82275e70bba44f3c9dad5c24f6182098994121a24db5e02464736f6c63430008040033",
  "linkReferences": {},
  "deployedLinkReferences": {}
}